{
  "_format": "hh-sol-artifact-1",
  "contractName": "BundleContract",
  "sourceName": "contracts/BundleContract.sol",
  "abi": [
    {
      "inputs": [
        {
          "internalType": "string",
          "name": "_name",
          "type": "string"
        },
        {
          "internalType": "string",
          "name": "_bundleUrl",
          "type": "string"
        },
        {
          "internalType": "string",
          "name": "_creatorName",
          "type": "string"
        },
        {
          "internalType": "address",
          "name": "_payableAddress",
          "type": "address"
        },
        {
          "internalType": "uint256",
          "name": "_price",
          "type": "uint256"
        }
      ],
      "stateMutability": "nonpayable",
      "type": "constructor"
    },
    {
      "anonymous": false,
      "inputs": [
        {
          "indexed": false,
          "internalType": "address",
          "name": "buyer",
          "type": "address"
        },
        {
          "indexed": false,
          "internalType": "uint256",
          "name": "price",
          "type": "uint256"
        }
      ],
      "name": "BundlePurchased",
      "type": "event"
    },
    {
      "inputs": [],
      "name": "getBundleUrl",
      "outputs": [
        {
          "internalType": "string",
          "name": "",
          "type": "string"
        }
      ],
      "stateMutability": "view",
      "type": "function"
    },
    {
      "inputs": [],
      "name": "getCreator",
      "outputs": [
        {
          "internalType": "string",
          "name": "",
          "type": "string"
        }
      ],
      "stateMutability": "view",
      "type": "function"
    },
    {
      "inputs": [],
      "name": "getMetadata",
      "outputs": [
        {
          "internalType": "string",
          "name": "",
          "type": "string"
        },
        {
          "internalType": "string",
          "name": "",
          "type": "string"
        },
        {
          "internalType": "string",
          "name": "",
          "type": "string"
        },
        {
          "internalType": "address",
          "name": "",
          "type": "address"
        },
        {
          "internalType": "uint256",
          "name": "",
          "type": "uint256"
        }
      ],
      "stateMutability": "view",
      "type": "function"
    },
    {
      "inputs": [],
      "name": "getName",
      "outputs": [
        {
          "internalType": "string",
          "name": "",
          "type": "string"
        }
      ],
      "stateMutability": "view",
      "type": "function"
    },
    {
      "inputs": [],
      "name": "getOwner",
      "outputs": [
        {
          "internalType": "address",
          "name": "",
          "type": "address"
        }
      ],
      "stateMutability": "view",
      "type": "function"
    },
    {
      "inputs": [],
      "name": "getPrice",
      "outputs": [
        {
          "internalType": "uint256",
          "name": "",
          "type": "uint256"
        }
      ],
      "stateMutability": "view",
      "type": "function"
    },
    {
      "inputs": [],
      "name": "purchase",
      "outputs": [],
      "stateMutability": "payable",
      "type": "function"
    }
  ],
  "bytecode": "0x60806040523480156200001157600080fd5b5060405162001410380380620014108339818101604052810190620000379190620003f2565b62000067604051806060016040528060258152602001620013eb6025913986620000f060201b620007121760201c565b846000908162000078919062000718565b5083600190816200008a919062000718565b5082600290816200009c919062000718565b5081600360006101000a81548173ffffffffffffffffffffffffffffffffffffffff021916908373ffffffffffffffffffffffffffffffffffffffff1602179055508060048190555050505050506200088c565b6200019282826040516024016200010992919062000851565b6040516020818303038152906040527f4b5c4277000000000000000000000000000000000000000000000000000000007bffffffffffffffffffffffffffffffffffffffffffffffffffffffff19166020820180517bffffffffffffffffffffffffffffffffffffffffffffffffffffffff83818316178352505050506200019660201b60201c565b5050565b60008151905060006a636f6e736f6c652e6c6f679050602083016000808483855afa5050505050565b6000604051905090565b600080fd5b600080fd5b600080fd5b600080fd5b6000601f19601f8301169050919050565b7f4e487b7100000000000000000000000000000000000000000000000000000000600052604160045260246000fd5b6200022882620001dd565b810181811067ffffffffffffffff821117156200024a5762000249620001ee565b5b80604052505050565b60006200025f620001bf565b90506200026d82826200021d565b919050565b600067ffffffffffffffff82111562000290576200028f620001ee565b5b6200029b82620001dd565b9050602081019050919050565b60005b83811015620002c8578082015181840152602081019050620002ab565b60008484015250505050565b6000620002eb620002e58462000272565b62000253565b9050828152602081018484840111156200030a5762000309620001d8565b5b62000317848285620002a8565b509392505050565b600082601f830112620003375762000336620001d3565b5b815162000349848260208601620002d4565b91505092915050565b600073ffffffffffffffffffffffffffffffffffffffff82169050919050565b60006200037f8262000352565b9050919050565b620003918162000372565b81146200039d57600080fd5b50565b600081519050620003b18162000386565b92915050565b6000819050919050565b620003cc81620003b7565b8114620003d857600080fd5b50565b600081519050620003ec81620003c1565b92915050565b600080600080600060a08688031215620004115762000410620001c9565b5b600086015167ffffffffffffffff811115620004325762000431620001ce565b5b62000440888289016200031f565b955050602086015167ffffffffffffffff811115620004645762000463620001ce565b5b62000472888289016200031f565b945050604086015167ffffffffffffffff811115620004965762000495620001ce565b5b620004a4888289016200031f565b9350506060620004b788828901620003a0565b9250506080620004ca88828901620003db565b9150509295509295909350565b600081519050919050565b7f4e487b7100000000000000000000000000000000000000000000000000000000600052602260045260246000fd5b600060028204905060018216806200052a57607f821691505b60208210810362000540576200053f620004e2565b5b50919050565b60008190508160005260206000209050919050565b60006020601f8301049050919050565b600082821b905092915050565b600060088302620005aa7fffffffffffffffffffffffffffffffffffffffffffffffffffffffffffffffff826200056b565b620005b686836200056b565b95508019841693508086168417925050509392505050565b6000819050919050565b6000620005f9620005f3620005ed84620003b7565b620005ce565b620003b7565b9050919050565b6000819050919050565b6200061583620005d8565b6200062d620006248262000600565b84845462000578565b825550505050565b600090565b6200064462000635565b620006518184846200060a565b505050565b5b8181101562000679576200066d6000826200063a565b60018101905062000657565b5050565b601f821115620006c857620006928162000546565b6200069d846200055b565b81016020851015620006ad578190505b620006c5620006bc856200055b565b83018262000656565b50505b505050565b600082821c905092915050565b6000620006ed60001984600802620006cd565b1980831691505092915050565b6000620007088383620006da565b9150826002028217905092915050565b6200072382620004d7565b67ffffffffffffffff8111156200073f576200073e620001ee565b5b6200074b825462000511565b620007588282856200067d565b600060209050601f8311600181146200079057600084156200077b578287015190505b620007878582620006fa565b865550620007f7565b601f198416620007a08662000546565b60005b82811015620007ca57848901518255600182019150602085019450602081019050620007a3565b86831015620007ea5784890151620007e6601f891682620006da565b8355505b6001600288020188555050505b505050505050565b600082825260208201905092915050565b60006200081d82620004d7565b620008298185620007ff565b93506200083b818560208601620002a8565b6200084681620001dd565b840191505092915050565b600060408201905081810360008301526200086d818562000810565b9050818103602083015262000883818462000810565b90509392505050565b610b4f806200089c6000396000f3fe6080604052600436106100705760003560e01c80637a5b4f591161004e5780637a5b4f59146100d5578063893d20e81461010457806398d5fdca1461012f5780639cd676b81461015a57610070565b80630ee2cb101461007557806317d7de7c146100a057806364edfbf0146100cb575b600080fd5b34801561008157600080fd5b5061008a610185565b6040516100979190610867565b60405180910390f35b3480156100ac57600080fd5b506100b5610217565b6040516100c29190610867565b60405180910390f35b6100d36102a9565b005b3480156100e157600080fd5b506100ea610463565b6040516100fb9594939291906108e3565b60405180910390f35b34801561011057600080fd5b5061011961064c565b604051610126919061094b565b60405180910390f35b34801561013b57600080fd5b50610144610676565b6040516101519190610966565b60405180910390f35b34801561016657600080fd5b5061016f610680565b60405161017c9190610867565b60405180910390f35b606060028054610194906109b0565b80601f01602080910402602001604051908101604052809291908181526020018280546101c0906109b0565b801561020d5780601f106101e25761010080835404028352916020019161020d565b820191906000526020600020905b8154815290600101906020018083116101f057829003601f168201915b5050505050905090565b606060008054610226906109b0565b80601f0160208091040260200160405190810160405280929190818152602001828054610252906109b0565b801561029f5780601f106102745761010080835404028352916020019161029f565b820191906000526020600020905b81548152906001019060200180831161028257829003601f168201915b5050505050905090565b600073ffffffffffffffffffffffffffffffffffffffff16600560009054906101000a900473ffffffffffffffffffffffffffffffffffffffff1673ffffffffffffffffffffffffffffffffffffffff161461033a576040517f08c379a000000000000000000000000000000000000000000000000000000000815260040161033190610a2d565b60405180910390fd5b600454341461037e576040517f08c379a000000000000000000000000000000000000000000000000000000000815260040161037590610a99565b60405180910390fd5b600360009054906101000a900473ffffffffffffffffffffffffffffffffffffffff1673ffffffffffffffffffffffffffffffffffffffff166108fc349081150290604051600060405180830381858888f193505050501580156103e6573d6000803e3d6000fd5b5033600560006101000a81548173ffffffffffffffffffffffffffffffffffffffff021916908373ffffffffffffffffffffffffffffffffffffffff1602179055507f69f79b663b4c14d7dd7c2df9d959689bfa8381f0eef0f76fad2ece0ff53b6b4d3334604051610459929190610ab9565b60405180910390a1565b6060806060600080600060016002600360009054906101000a900473ffffffffffffffffffffffffffffffffffffffff166004548480546104a3906109b0565b80601f01602080910402602001604051908101604052809291908181526020018280546104cf906109b0565b801561051c5780601f106104f15761010080835404028352916020019161051c565b820191906000526020600020905b8154815290600101906020018083116104ff57829003601f168201915b5050505050945083805461052f906109b0565b80601f016020809104026020016040519081016040528092919081815260200182805461055b906109b0565b80156105a85780601f1061057d576101008083540402835291602001916105a8565b820191906000526020600020905b81548152906001019060200180831161058b57829003601f168201915b505050505093508280546105bb906109b0565b80601f01602080910402602001604051908101604052809291908181526020018280546105e7906109b0565b80156106345780601f1061060957610100808354040283529160200191610634565b820191906000526020600020905b81548152906001019060200180831161061757829003601f168201915b50505050509250945094509450945094509091929394565b6000600560009054906101000a900473ffffffffffffffffffffffffffffffffffffffff16905090565b6000600454905090565b60606001805461068f906109b0565b80601f01602080910402602001604051908101604052809291908181526020018280546106bb906109b0565b80156107085780601f106106dd57610100808354040283529160200191610708565b820191906000526020600020905b8154815290600101906020018083116106eb57829003601f168201915b5050505050905090565b6107aa8282604051602401610728929190610ae2565b6040516020818303038152906040527f4b5c4277000000000000000000000000000000000000000000000000000000007bffffffffffffffffffffffffffffffffffffffffffffffffffffffff19166020820180517bffffffffffffffffffffffffffffffffffffffffffffffffffffffff83818316178352505050506107ae565b5050565b60008151905060006a636f6e736f6c652e6c6f679050602083016000808483855afa5050505050565b600081519050919050565b600082825260208201905092915050565b60005b838110156108115780820151818401526020810190506107f6565b60008484015250505050565b6000601f19601f8301169050919050565b6000610839826107d7565b61084381856107e2565b93506108538185602086016107f3565b61085c8161081d565b840191505092915050565b60006020820190508181036000830152610881818461082e565b905092915050565b600073ffffffffffffffffffffffffffffffffffffffff82169050919050565b60006108b482610889565b9050919050565b6108c4816108a9565b82525050565b6000819050919050565b6108dd816108ca565b82525050565b600060a08201905081810360008301526108fd818861082e565b90508181036020830152610911818761082e565b90508181036040830152610925818661082e565b905061093460608301856108bb565b61094160808301846108d4565b9695505050505050565b600060208201905061096060008301846108bb565b92915050565b600060208201905061097b60008301846108d4565b92915050565b7f4e487b7100000000000000000000000000000000000000000000000000000000600052602260045260246000fd5b600060028204905060018216806109c857607f821691505b6020821081036109db576109da610981565b5b50919050565b7f42756e646c6520616c7265616479207075726368617365640000000000000000600082015250565b6000610a176018836107e2565b9150610a22826109e1565b602082019050919050565b60006020820190508181036000830152610a4681610a0a565b9050919050565b7f496e636f727265637420616d6f756e7400000000000000000000000000000000600082015250565b6000610a836010836107e2565b9150610a8e82610a4d565b602082019050919050565b60006020820190508181036000830152610ab281610a76565b9050919050565b6000604082019050610ace60008301856108bb565b610adb60208301846108d4565b9392505050565b60006040820190508181036000830152610afc818561082e565b90508181036020830152610b10818461082e565b9050939250505056fea264697066735822122036a25ee4b52b155156d652e9488bd3f7e14b31f28efe54edea1cf543f3f9af8c64736f6c634300081200334465706c6f79696e6720612042756e646c65436f6e74726163742077697468206e616d653a",
  "linkReferences": {},
  "deployedLinkReferences": {}
}